{
  "contractName": "Banco",
  "abi": [
    {
      "anonymous": false,
      "inputs": [
        {
          "indexed": true,
          "internalType": "address",
          "name": "conta",
          "type": "address"
        },
        {
          "indexed": false,
          "internalType": "uint256",
          "name": "valor",
          "type": "uint256"
        }
      ],
      "name": "Deposito",
      "type": "event"
    },
    {
      "anonymous": false,
      "inputs": [
        {
          "indexed": true,
          "internalType": "address",
          "name": "conta",
          "type": "address"
        },
        {
          "indexed": false,
          "internalType": "uint256",
          "name": "saldo",
          "type": "uint256"
        }
      ],
      "name": "SaldoAtualizado",
      "type": "event"
    },
    {
      "anonymous": false,
      "inputs": [
        {
          "indexed": true,
          "internalType": "address",
          "name": "conta",
          "type": "address"
        },
        {
          "indexed": false,
          "internalType": "uint256",
          "name": "valor",
          "type": "uint256"
        }
      ],
      "name": "Saque",
      "type": "event"
    },
    {
      "inputs": [],
      "name": "saldoAtual",
      "outputs": [
        {
          "internalType": "uint256",
          "name": "",
          "type": "uint256"
        }
      ],
      "stateMutability": "view",
      "type": "function"
    },
    {
      "inputs": [],
      "name": "depositar",
      "outputs": [],
      "stateMutability": "payable",
      "type": "function"
    },
    {
      "inputs": [
        {
          "internalType": "uint256",
          "name": "valor",
          "type": "uint256"
        }
      ],
      "name": "sacar",
      "outputs": [],
      "stateMutability": "nonpayable",
      "type": "function"
    },
    {
      "inputs": [],
      "name": "extrato",
      "outputs": [
        {
          "components": [
            {
              "internalType": "string",
              "name": "tipo",
              "type": "string"
            },
            {
              "internalType": "uint256",
              "name": "valor",
              "type": "uint256"
            },
            {
              "internalType": "uint256",
              "name": "data",
              "type": "uint256"
            }
          ],
          "internalType": "struct Banco.Transacao[]",
          "name": "",
          "type": "tuple[]"
        }
      ],
      "stateMutability": "view",
      "type": "function"
    },
    {
      "inputs": [
        {
          "internalType": "address",
          "name": "conta",
          "type": "address"
        }
      ],
      "name": "saldoDe",
      "outputs": [
        {
          "internalType": "uint256",
          "name": "",
          "type": "uint256"
        }
      ],
      "stateMutability": "view",
      "type": "function"
    }
  ],
  "bytecode": "0x608060405234801561001057600080fd5b50610ec8806100206000396000f3fe60806040526004361061004a5760003560e01c806306f03e761461004f5780633d922f901461007a5780636baf38ca146100845780637371b0d6146100c1578063bb848c77146100ea575b600080fd5b34801561005b57600080fd5b50610064610115565b6040516100719190610c49565b60405180910390f35b61008261015b565b005b34801561009057600080fd5b506100ab60048036038101906100a69190610939565b6103ba565b6040516100b89190610c49565b60405180910390f35b3480156100cd57600080fd5b506100e860048036038101906100e39190610962565b610402565b005b3480156100f657600080fd5b506100ff61072a565b60405161010c9190610bc7565b60405180910390f35b60008060003373ffffffffffffffffffffffffffffffffffffffff1673ffffffffffffffffffffffffffffffffffffffff16815260200190815260200160002054905090565b6000341161019e576040517f08c379a000000000000000000000000000000000000000000000000000000000815260040161019590610be9565b60405180910390fd5b346000803373ffffffffffffffffffffffffffffffffffffffff1673ffffffffffffffffffffffffffffffffffffffff16815260200190815260200160002060008282546101ec9190610cca565b92505081905550600160003373ffffffffffffffffffffffffffffffffffffffff1673ffffffffffffffffffffffffffffffffffffffff16815260200190815260200160002060405180606001604052806040518060400160405280600881526020017f6465706f7369746f000000000000000000000000000000000000000000000000815250815260200134815260200142815250908060018154018082558091505060019003906000526020600020906003020160009091909190915060008201518160000190805190602001906102c792919061086c565b50602082015181600101556040820151816002015550503373ffffffffffffffffffffffffffffffffffffffff167f453529dac6ef979a41d67fbeeabdfae29903c185f64d77aa690df9eca5f1aa60346040516103249190610c49565b60405180910390a23373ffffffffffffffffffffffffffffffffffffffff167f88ade5f32a0055ec23dca5582ee85d78e2d2696e2c402c33de046ca410d199b66000803373ffffffffffffffffffffffffffffffffffffffff1673ffffffffffffffffffffffffffffffffffffffff168152602001908152602001600020546040516103b09190610c49565b60405180910390a2565b60008060008373ffffffffffffffffffffffffffffffffffffffff1673ffffffffffffffffffffffffffffffffffffffff168152602001908152602001600020549050919050565b60008111610445576040517f08c379a000000000000000000000000000000000000000000000000000000000815260040161043c90610c09565b60405180910390fd5b806000803373ffffffffffffffffffffffffffffffffffffffff1673ffffffffffffffffffffffffffffffffffffffff1681526020019081526020016000205410156104c6576040517f08c379a00000000000000000000000000000000000000000000000000000000081526004016104bd90610c29565b60405180910390fd5b806000803373ffffffffffffffffffffffffffffffffffffffff1673ffffffffffffffffffffffffffffffffffffffff16815260200190815260200160002060008282546105149190610d20565b925050819055503373ffffffffffffffffffffffffffffffffffffffff166108fc829081150290604051600060405180830381858888f19350505050158015610561573d6000803e3d6000fd5b50600160003373ffffffffffffffffffffffffffffffffffffffff1673ffffffffffffffffffffffffffffffffffffffff16815260200190815260200160002060405180606001604052806040518060400160405280600581526020017f73617175650000000000000000000000000000000000000000000000000000008152508152602001838152602001428152509080600181540180825580915050600190039060005260206000209060030201600090919091909150600082015181600001908051906020019061063692919061086c565b50602082015181600101556040820151816002015550503373ffffffffffffffffffffffffffffffffffffffff167f014a0fee2e4f4636f4de7bc3c3662262d3d28152c5700f9ad350ef2e02a9b278826040516106939190610c49565b60405180910390a23373ffffffffffffffffffffffffffffffffffffffff167f88ade5f32a0055ec23dca5582ee85d78e2d2696e2c402c33de046ca410d199b66000803373ffffffffffffffffffffffffffffffffffffffff1673ffffffffffffffffffffffffffffffffffffffff1681526020019081526020016000205460405161071f9190610c49565b60405180910390a250565b6060600160003373ffffffffffffffffffffffffffffffffffffffff1673ffffffffffffffffffffffffffffffffffffffff168152602001908152602001600020805480602002602001604051908101604052809291908181526020016000905b8282101561086357838290600052602060002090600302016040518060600160405290816000820180546107be90610dc3565b80601f01602080910402602001604051908101604052809291908181526020018280546107ea90610dc3565b80156108375780601f1061080c57610100808354040283529160200191610837565b820191906000526020600020905b81548152906001019060200180831161081a57829003601f168201915b50505050508152602001600182015481526020016002820154815250508152602001906001019061078b565b50505050905090565b82805461087890610dc3565b90600052602060002090601f01602090048101928261089a57600085556108e1565b82601f106108b357805160ff19168380011785556108e1565b828001600101855582156108e1579182015b828111156108e05782518255916020019190600101906108c5565b5b5090506108ee91906108f2565b5090565b5b8082111561090b5760008160009055506001016108f3565b5090565b60008135905061091e81610e64565b92915050565b60008135905061093381610e7b565b92915050565b60006020828403121561094b57600080fd5b60006109598482850161090f565b91505092915050565b60006020828403121561097457600080fd5b600061098284828501610924565b91505092915050565b60006109978383610b59565b905092915050565b60006109aa82610c74565b6109b48185610c97565b9350836020820285016109c685610c64565b8060005b85811015610a0257848403895281516109e3858261098b565b94506109ee83610c8a565b925060208a019950506001810190506109ca565b50829750879550505050505092915050565b6000610a1f82610c7f565b610a298185610ca8565b9350610a39818560208601610d90565b610a4281610e53565b840191505092915050565b6000610a5a602a83610cb9565b91507f56616c6f7220646f206465706f7369746f206465766520736572206d61696f7260008301527f20717565207a65726f2e000000000000000000000000000000000000000000006020830152604082019050919050565b6000610ac0602783610cb9565b91507f56616c6f7220646f207361717565206465766520736572206d61696f7220717560008301527f65207a65726f2e000000000000000000000000000000000000000000000000006020830152604082019050919050565b6000610b26601383610cb9565b91507f53616c646f20696e737566696369656e74652e000000000000000000000000006000830152602082019050919050565b60006060830160008301518482036000860152610b768282610a14565b9150506020830151610b8b6020860182610ba9565b506040830151610b9e6040860182610ba9565b508091505092915050565b610bb281610d86565b82525050565b610bc181610d86565b82525050565b60006020820190508181036000830152610be1818461099f565b905092915050565b60006020820190508181036000830152610c0281610a4d565b9050919050565b60006020820190508181036000830152610c2281610ab3565b9050919050565b60006020820190508181036000830152610c4281610b19565b9050919050565b6000602082019050610c5e6000830184610bb8565b92915050565b6000819050602082019050919050565b600081519050919050565b600081519050919050565b6000602082019050919050565b600082825260208201905092915050565b600082825260208201905092915050565b600082825260208201905092915050565b6000610cd582610d86565b9150610ce083610d86565b9250827fffffffffffffffffffffffffffffffffffffffffffffffffffffffffffffffff03821115610d1557610d14610df5565b5b828201905092915050565b6000610d2b82610d86565b9150610d3683610d86565b925082821015610d4957610d48610df5565b5b828203905092915050565b6000610d5f82610d66565b9050919050565b600073ffffffffffffffffffffffffffffffffffffffff82169050919050565b6000819050919050565b60005b83811015610dae578082015181840152602081019050610d93565b83811115610dbd576000848401525b50505050565b60006002820490506001821680610ddb57607f821691505b60208210811415610def57610dee610e24565b5b50919050565b7f4e487b7100000000000000000000000000000000000000000000000000000000600052601160045260246000fd5b7f4e487b7100000000000000000000000000000000000000000000000000000000600052602260045260246000fd5b6000601f19601f8301169050919050565b610e6d81610d54565b8114610e7857600080fd5b50565b610e8481610d86565b8114610e8f57600080fd5b5056fea26469706673582212206ffd09369b697cfa3141eecd530991786eb40c0e1622b6d7c30490df596a59c764736f6c63430008000033",
  "immutableReferences": {},
  "source": "// SPDX-License-Identifier: MIT\r\npragma solidity ^0.8.0;\r\n\r\ncontract Banco {\r\n    struct Transacao {\r\n        string tipo; // \"deposito\" ou \"saque\"\r\n        uint valor;\r\n        uint data;\r\n    }\r\n\r\n    mapping(address => uint) private saldos;\r\n    mapping(address => Transacao[]) private transacoes;\r\n\r\n    event Deposito(address indexed conta, uint valor);\r\n    event Saque(address indexed conta, uint valor);\r\n    event SaldoAtualizado(address indexed conta, uint saldo); // Adicionado para depurao\r\n\r\n    function saldoAtual() public view returns (uint) {\r\n        return saldos[msg.sender];\r\n    }\r\n\r\n    function depositar() public payable {\r\n    require(msg.value > 0, \"Valor do deposito deve ser maior que zero.\");\r\n    saldos[msg.sender] += msg.value;\r\n    transacoes[msg.sender].push(Transacao(\"deposito\", msg.value, block.timestamp));\r\n    emit Deposito(msg.sender, msg.value);\r\n    emit SaldoAtualizado(msg.sender, saldos[msg.sender]); // Adicionado para depurao\r\n    }\r\n\r\n\r\n    function sacar(uint valor) public {\r\n        require(valor > 0, \"Valor do saque deve ser maior que zero.\");\r\n        require(saldos[msg.sender] >= valor, \"Saldo insuficiente.\");\r\n        \r\n        // Atualiza o saldo antes de transferir para evitar reentrncia\r\n        saldos[msg.sender] -= valor;\r\n        payable(msg.sender).transfer(valor);\r\n        transacoes[msg.sender].push(Transacao(\"saque\", valor, block.timestamp));\r\n        emit Saque(msg.sender, valor);\r\n        emit SaldoAtualizado(msg.sender, saldos[msg.sender]); // Adicionado para depurao\r\n    }\r\n\r\n    function extrato() public view returns (Transacao[] memory) {\r\n        return transacoes[msg.sender];\r\n    }\r\n\r\n    function saldoDe(address conta) public view returns (uint) {\r\n        return saldos[conta];\r\n    }\r\n}\r\n",
  "sourcePath": "C:\\Users\\monik\\repos\\ods2\\atualizar\\contracts\\Banco.sol",
  "compiler": {
    "name": "solc",
    "version": "0.8.0+commit.c7dfd78e.Emscripten.clang"
  },
  "schemaVersion": "3.4.16",
  "updatedAt": "2024-07-22T03:59:39.263Z",
  "devdoc": {
    "kind": "dev",
    "methods": {},
    "version": 1
  },
  "userdoc": {
    "kind": "user",
    "methods": {},
    "version": 1
  }
}