{
  "contractName": "Banco",
  "abi": [
    {
      "inputs": [],
      "stateMutability": "nonpayable",
      "type": "constructor"
    },
    {
      "anonymous": false,
      "inputs": [
        {
          "indexed": true,
          "internalType": "address",
          "name": "conta",
          "type": "address"
        },
        {
          "indexed": false,
          "internalType": "uint256",
          "name": "valor",
          "type": "uint256"
        }
      ],
      "name": "Deposito",
      "type": "event"
    },
    {
      "anonymous": false,
      "inputs": [
        {
          "indexed": true,
          "internalType": "address",
          "name": "conta",
          "type": "address"
        },
        {
          "indexed": false,
          "internalType": "uint256",
          "name": "saldo",
          "type": "uint256"
        }
      ],
      "name": "SaldoAtualizado",
      "type": "event"
    },
    {
      "anonymous": false,
      "inputs": [
        {
          "indexed": true,
          "internalType": "address",
          "name": "conta",
          "type": "address"
        },
        {
          "indexed": false,
          "internalType": "uint256",
          "name": "valor",
          "type": "uint256"
        }
      ],
      "name": "Saque",
      "type": "event"
    },
    {
      "inputs": [],
      "name": "owner",
      "outputs": [
        {
          "internalType": "address",
          "name": "",
          "type": "address"
        }
      ],
      "stateMutability": "view",
      "type": "function"
    },
    {
      "inputs": [],
      "name": "saldoAtual",
      "outputs": [
        {
          "internalType": "uint256",
          "name": "",
          "type": "uint256"
        }
      ],
      "stateMutability": "view",
      "type": "function"
    },
    {
      "inputs": [
        {
          "internalType": "address",
          "name": "conta",
          "type": "address"
        },
        {
          "internalType": "uint256",
          "name": "valorInicial",
          "type": "uint256"
        }
      ],
      "name": "configurarValorInicial",
      "outputs": [],
      "stateMutability": "nonpayable",
      "type": "function"
    },
    {
      "inputs": [],
      "name": "depositar",
      "outputs": [],
      "stateMutability": "payable",
      "type": "function"
    },
    {
      "inputs": [
        {
          "internalType": "uint256",
          "name": "valor",
          "type": "uint256"
        }
      ],
      "name": "sacar",
      "outputs": [],
      "stateMutability": "nonpayable",
      "type": "function"
    },
    {
      "inputs": [],
      "name": "extrato",
      "outputs": [
        {
          "components": [
            {
              "internalType": "string",
              "name": "tipo",
              "type": "string"
            },
            {
              "internalType": "uint256",
              "name": "valor",
              "type": "uint256"
            },
            {
              "internalType": "uint256",
              "name": "data",
              "type": "uint256"
            }
          ],
          "internalType": "struct Banco.Transacao[]",
          "name": "",
          "type": "tuple[]"
        }
      ],
      "stateMutability": "view",
      "type": "function"
    },
    {
      "inputs": [
        {
          "internalType": "address",
          "name": "conta",
          "type": "address"
        }
      ],
      "name": "saldoDe",
      "outputs": [
        {
          "internalType": "uint256",
          "name": "",
          "type": "uint256"
        }
      ],
      "stateMutability": "view",
      "type": "function"
    }
  ],
  "bytecode": "0x608060405234801561001057600080fd5b50336000806101000a81548173ffffffffffffffffffffffffffffffffffffffff021916908373ffffffffffffffffffffffffffffffffffffffff16021790555061112e806100606000396000f3fe60806040526004361061006f5760003560e01c80636baf38ca1161004e5780636baf38ca146100d25780637371b0d61461010f5780638da5cb5b14610138578063bb848c77146101635761006f565b8062294b891461007457806306f03e761461009d5780633d922f90146100c8575b600080fd5b34801561008057600080fd5b5061009b60048036038101906100969190610adc565b61018e565b005b3480156100a957600080fd5b506100b2610264565b6040516100bf9190610eaf565b60405180910390f35b6100d06102ab565b005b3480156100de57600080fd5b506100f960048036038101906100f49190610ab3565b61050c565b6040516101069190610eaf565b60405180910390f35b34801561011b57600080fd5b5061013660048036038101906101319190610b18565b610555565b005b34801561014457600080fd5b5061014d610880565b60405161015a9190610df2565b60405180910390f35b34801561016f57600080fd5b506101786108a4565b6040516101859190610e0d565b60405180910390f35b60008054906101000a900473ffffffffffffffffffffffffffffffffffffffff1673ffffffffffffffffffffffffffffffffffffffff163373ffffffffffffffffffffffffffffffffffffffff161461021c576040517f08c379a000000000000000000000000000000000000000000000000000000000815260040161021390610e6f565b60405180910390fd5b80600160008473ffffffffffffffffffffffffffffffffffffffff1673ffffffffffffffffffffffffffffffffffffffff168152602001908152602001600020819055505050565b6000600160003373ffffffffffffffffffffffffffffffffffffffff1673ffffffffffffffffffffffffffffffffffffffff16815260200190815260200160002054905090565b600034116102ee576040517f08c379a00000000000000000000000000000000000000000000000000000000081526004016102e590610e2f565b60405180910390fd5b34600160003373ffffffffffffffffffffffffffffffffffffffff1673ffffffffffffffffffffffffffffffffffffffff168152602001908152602001600020600082825461033d9190610f30565b92505081905550600260003373ffffffffffffffffffffffffffffffffffffffff1673ffffffffffffffffffffffffffffffffffffffff16815260200190815260200160002060405180606001604052806040518060400160405280600881526020017f6465706f7369746f000000000000000000000000000000000000000000000000815250815260200134815260200142815250908060018154018082558091505060019003906000526020600020906003020160009091909190915060008201518160000190805190602001906104189291906109e6565b50602082015181600101556040820151816002015550503373ffffffffffffffffffffffffffffffffffffffff167f453529dac6ef979a41d67fbeeabdfae29903c185f64d77aa690df9eca5f1aa60346040516104759190610eaf565b60405180910390a23373ffffffffffffffffffffffffffffffffffffffff167f88ade5f32a0055ec23dca5582ee85d78e2d2696e2c402c33de046ca410d199b6600160003373ffffffffffffffffffffffffffffffffffffffff1673ffffffffffffffffffffffffffffffffffffffff168152602001908152602001600020546040516105029190610eaf565b60405180910390a2565b6000600160008373ffffffffffffffffffffffffffffffffffffffff1673ffffffffffffffffffffffffffffffffffffffff168152602001908152602001600020549050919050565b60008111610598576040517f08c379a000000000000000000000000000000000000000000000000000000000815260040161058f90610e4f565b60405180910390fd5b80600160003373ffffffffffffffffffffffffffffffffffffffff1673ffffffffffffffffffffffffffffffffffffffff16815260200190815260200160002054101561061a576040517f08c379a000000000000000000000000000000000000000000000000000000000815260040161061190610e8f565b60405180910390fd5b80600160003373ffffffffffffffffffffffffffffffffffffffff1673ffffffffffffffffffffffffffffffffffffffff16815260200190815260200160002060008282546106699190610f86565b925050819055503373ffffffffffffffffffffffffffffffffffffffff166108fc829081150290604051600060405180830381858888f193505050501580156106b6573d6000803e3d6000fd5b50600260003373ffffffffffffffffffffffffffffffffffffffff1673ffffffffffffffffffffffffffffffffffffffff16815260200190815260200160002060405180606001604052806040518060400160405280600581526020017f73617175650000000000000000000000000000000000000000000000000000008152508152602001838152602001428152509080600181540180825580915050600190039060005260206000209060030201600090919091909150600082015181600001908051906020019061078b9291906109e6565b50602082015181600101556040820151816002015550503373ffffffffffffffffffffffffffffffffffffffff167f014a0fee2e4f4636f4de7bc3c3662262d3d28152c5700f9ad350ef2e02a9b278826040516107e89190610eaf565b60405180910390a23373ffffffffffffffffffffffffffffffffffffffff167f88ade5f32a0055ec23dca5582ee85d78e2d2696e2c402c33de046ca410d199b6600160003373ffffffffffffffffffffffffffffffffffffffff1673ffffffffffffffffffffffffffffffffffffffff168152602001908152602001600020546040516108759190610eaf565b60405180910390a250565b60008054906101000a900473ffffffffffffffffffffffffffffffffffffffff1681565b6060600260003373ffffffffffffffffffffffffffffffffffffffff1673ffffffffffffffffffffffffffffffffffffffff168152602001908152602001600020805480602002602001604051908101604052809291908181526020016000905b828210156109dd578382906000526020600020906003020160405180606001604052908160008201805461093890611029565b80601f016020809104026020016040519081016040528092919081815260200182805461096490611029565b80156109b15780601f10610986576101008083540402835291602001916109b1565b820191906000526020600020905b81548152906001019060200180831161099457829003601f168201915b505050505081526020016001820154815260200160028201548152505081526020019060010190610905565b50505050905090565b8280546109f290611029565b90600052602060002090601f016020900481019282610a145760008555610a5b565b82601f10610a2d57805160ff1916838001178555610a5b565b82800160010185558215610a5b579182015b82811115610a5a578251825591602001919060010190610a3f565b5b509050610a689190610a6c565b5090565b5b80821115610a85576000816000905550600101610a6d565b5090565b600081359050610a98816110ca565b92915050565b600081359050610aad816110e1565b92915050565b600060208284031215610ac557600080fd5b6000610ad384828501610a89565b91505092915050565b60008060408385031215610aef57600080fd5b6000610afd85828601610a89565b9250506020610b0e85828601610a9e565b9150509250929050565b600060208284031215610b2a57600080fd5b6000610b3884828501610a9e565b91505092915050565b6000610b4d8383610d84565b905092915050565b610b5e81610fba565b82525050565b6000610b6f82610eda565b610b798185610efd565b935083602082028501610b8b85610eca565b8060005b85811015610bc75784840389528151610ba88582610b41565b9450610bb383610ef0565b925060208a01995050600181019050610b8f565b50829750879550505050505092915050565b6000610be482610ee5565b610bee8185610f0e565b9350610bfe818560208601610ff6565b610c07816110b9565b840191505092915050565b6000610c1f602a83610f1f565b91507f56616c6f7220646f206465706f7369746f206465766520736572206d61696f7260008301527f20717565207a65726f2e000000000000000000000000000000000000000000006020830152604082019050919050565b6000610c85602783610f1f565b91507f56616c6f7220646f207361717565206465766520736572206d61696f7220717560008301527f65207a65726f2e000000000000000000000000000000000000000000000000006020830152604082019050919050565b6000610ceb603683610f1f565b91507f4170656e6173206f2070726f70726965746172696f20706f646520636f6e666960008301527f6775726172206f2076616c6f7220696e696369616c2e000000000000000000006020830152604082019050919050565b6000610d51601383610f1f565b91507f53616c646f20696e737566696369656e74652e000000000000000000000000006000830152602082019050919050565b60006060830160008301518482036000860152610da18282610bd9565b9150506020830151610db66020860182610dd4565b506040830151610dc96040860182610dd4565b508091505092915050565b610ddd81610fec565b82525050565b610dec81610fec565b82525050565b6000602082019050610e076000830184610b55565b92915050565b60006020820190508181036000830152610e278184610b64565b905092915050565b60006020820190508181036000830152610e4881610c12565b9050919050565b60006020820190508181036000830152610e6881610c78565b9050919050565b60006020820190508181036000830152610e8881610cde565b9050919050565b60006020820190508181036000830152610ea881610d44565b9050919050565b6000602082019050610ec46000830184610de3565b92915050565b6000819050602082019050919050565b600081519050919050565b600081519050919050565b6000602082019050919050565b600082825260208201905092915050565b600082825260208201905092915050565b600082825260208201905092915050565b6000610f3b82610fec565b9150610f4683610fec565b9250827fffffffffffffffffffffffffffffffffffffffffffffffffffffffffffffffff03821115610f7b57610f7a61105b565b5b828201905092915050565b6000610f9182610fec565b9150610f9c83610fec565b925082821015610faf57610fae61105b565b5b828203905092915050565b6000610fc582610fcc565b9050919050565b600073ffffffffffffffffffffffffffffffffffffffff82169050919050565b6000819050919050565b60005b83811015611014578082015181840152602081019050610ff9565b83811115611023576000848401525b50505050565b6000600282049050600182168061104157607f821691505b602082108114156110555761105461108a565b5b50919050565b7f4e487b7100000000000000000000000000000000000000000000000000000000600052601160045260246000fd5b7f4e487b7100000000000000000000000000000000000000000000000000000000600052602260045260246000fd5b6000601f19601f8301169050919050565b6110d381610fba565b81146110de57600080fd5b50565b6110ea81610fec565b81146110f557600080fd5b5056fea2646970667358221220acef0e10664d8cd326f30439722d0175c771a5f6f68d62b322ac30071c4ed06964736f6c63430008000033",
  "immutableReferences": {},
  "source": "// SPDX-License-Identifier: MIT\r\npragma solidity ^0.8.0;\r\n\r\ncontract Banco {\r\n    address public owner;\r\n\r\n    struct Transacao {\r\n        string tipo; \r\n        uint valor;\r\n        uint data;\r\n    }\r\n\r\n    mapping(address => uint) private saldos;\r\n    mapping(address => Transacao[]) private transacoes;\r\n\r\n    event Deposito(address indexed conta, uint valor);\r\n    event Saque(address indexed conta, uint valor);\r\n    event SaldoAtualizado(address indexed conta, uint saldo); \r\n\r\n    constructor() {\r\n        owner = msg.sender; \r\n    }\r\n\r\n    function saldoAtual() public view returns (uint) {\r\n        return saldos[msg.sender];\r\n    }\r\n\r\n    function configurarValorInicial(address conta, uint valorInicial) public {\r\n    require(msg.sender == owner, \"Apenas o proprietario pode configurar o valor inicial.\");\r\n    saldos[conta] = valorInicial;\r\n    }\r\n\r\n    function depositar() public payable {\r\n    require(msg.value > 0, \"Valor do deposito deve ser maior que zero.\");\r\n    saldos[msg.sender] += msg.value;\r\n    transacoes[msg.sender].push(Transacao(\"deposito\", msg.value, block.timestamp));\r\n    emit Deposito(msg.sender, msg.value);\r\n    emit SaldoAtualizado(msg.sender, saldos[msg.sender]); // Adicionado para depurao\r\n    }\r\n\r\n\r\n    function sacar(uint valor) public {\r\n        require(valor > 0, \"Valor do saque deve ser maior que zero.\");\r\n        require(saldos[msg.sender] >= valor, \"Saldo insuficiente.\");\r\n        \r\n        // Atualiza o saldo antes de transferir para evitar reentrncia\r\n        saldos[msg.sender] -= valor;\r\n        payable(msg.sender).transfer(valor);\r\n        transacoes[msg.sender].push(Transacao(\"saque\", valor, block.timestamp));\r\n        emit Saque(msg.sender, valor);\r\n        emit SaldoAtualizado(msg.sender, saldos[msg.sender]); \r\n    }\r\n\r\n    function extrato() public view returns (Transacao[] memory) {\r\n        return transacoes[msg.sender];\r\n    }\r\n\r\n    function saldoDe(address conta) public view returns (uint) {\r\n        return saldos[conta];\r\n    }\r\n}\r\n",
  "sourcePath": "C:\\Users\\monik\\repos\\ods2\\atualizar\\src\\contracts\\Banco.sol",
  "compiler": {
    "name": "solc",
    "version": "0.8.0+commit.c7dfd78e.Emscripten.clang"
  },
  "schemaVersion": "3.4.16",
  "updatedAt": "2024-07-22T05:09:04.119Z",
  "devdoc": {
    "kind": "dev",
    "methods": {},
    "version": 1
  },
  "userdoc": {
    "kind": "user",
    "methods": {},
    "version": 1
  }
}