{
  "contractName": "Banco",
  "abi": [
    {
      "anonymous": false,
      "inputs": [
        {
          "indexed": true,
          "internalType": "address",
          "name": "conta",
          "type": "address"
        },
        {
          "indexed": false,
          "internalType": "uint256",
          "name": "valor",
          "type": "uint256"
        }
      ],
      "name": "Deposito",
      "type": "event"
    },
    {
      "anonymous": false,
      "inputs": [
        {
          "indexed": true,
          "internalType": "address",
          "name": "conta",
          "type": "address"
        },
        {
          "indexed": false,
          "internalType": "uint256",
          "name": "saldo",
          "type": "uint256"
        }
      ],
      "name": "SaldoAtualizado",
      "type": "event"
    },
    {
      "anonymous": false,
      "inputs": [
        {
          "indexed": true,
          "internalType": "address",
          "name": "conta",
          "type": "address"
        },
        {
          "indexed": false,
          "internalType": "uint256",
          "name": "valor",
          "type": "uint256"
        }
      ],
      "name": "Saque",
      "type": "event"
    },
    {
      "inputs": [],
      "name": "saldoAtual",
      "outputs": [
        {
          "internalType": "uint256",
          "name": "",
          "type": "uint256"
        }
      ],
      "stateMutability": "view",
      "type": "function"
    },
    {
      "inputs": [],
      "name": "depositar",
      "outputs": [],
      "stateMutability": "payable",
      "type": "function"
    },
    {
      "inputs": [
        {
          "internalType": "uint256",
          "name": "valor",
          "type": "uint256"
        }
      ],
      "name": "sacar",
      "outputs": [],
      "stateMutability": "nonpayable",
      "type": "function"
    },
    {
      "inputs": [],
      "name": "extrato",
      "outputs": [
        {
          "components": [
            {
              "internalType": "string",
              "name": "tipo",
              "type": "string"
            },
            {
              "internalType": "uint256",
              "name": "valor",
              "type": "uint256"
            },
            {
              "internalType": "uint256",
              "name": "data",
              "type": "uint256"
            }
          ],
          "internalType": "struct Banco.Transacao[]",
          "name": "",
          "type": "tuple[]"
        }
      ],
      "stateMutability": "view",
      "type": "function"
    },
    {
      "inputs": [
        {
          "internalType": "address",
          "name": "conta",
          "type": "address"
        }
      ],
      "name": "saldoDe",
      "outputs": [
        {
          "internalType": "uint256",
          "name": "",
          "type": "uint256"
        }
      ],
      "stateMutability": "view",
      "type": "function"
    }
  ],
  "bytecode": "0x608060405234801561000f575f80fd5b5061104e8061001d5f395ff3fe608060405260043610610049575f3560e01c806306f03e761461004d5780633d922f90146100775780636baf38ca146100815780637371b0d6146100bd578063bb848c77146100e5575b5f80fd5b348015610058575f80fd5b5061006161010f565b60405161006e9190610843565b60405180910390f35b61007f610152565b005b34801561008c575f80fd5b506100a760048036038101906100a291906108ba565b61039d565b6040516100b49190610843565b60405180910390f35b3480156100c8575f80fd5b506100e360048036038101906100de919061090f565b6103e2565b005b3480156100f0575f80fd5b506100f96106f1565b6040516101069190610adb565b60405180910390f35b5f805f3373ffffffffffffffffffffffffffffffffffffffff1673ffffffffffffffffffffffffffffffffffffffff1681526020019081526020015f2054905090565b5f3411610194576040517f08c379a000000000000000000000000000000000000000000000000000000000815260040161018b90610b7b565b60405180910390fd5b345f803373ffffffffffffffffffffffffffffffffffffffff1673ffffffffffffffffffffffffffffffffffffffff1681526020019081526020015f205f8282546101df9190610bc6565b9250508190555060015f3373ffffffffffffffffffffffffffffffffffffffff1673ffffffffffffffffffffffffffffffffffffffff1681526020019081526020015f2060405180606001604052806040518060400160405280600881526020017f6465706f7369746f000000000000000000000000000000000000000000000000815250815260200134815260200142815250908060018154018082558091505060019003905f5260205f2090600302015f909190919091505f820151815f0190816102ac9190610e20565b50602082015181600101556040820151816002015550503373ffffffffffffffffffffffffffffffffffffffff167f453529dac6ef979a41d67fbeeabdfae29903c185f64d77aa690df9eca5f1aa60346040516103099190610843565b60405180910390a23373ffffffffffffffffffffffffffffffffffffffff167f88ade5f32a0055ec23dca5582ee85d78e2d2696e2c402c33de046ca410d199b65f803373ffffffffffffffffffffffffffffffffffffffff1673ffffffffffffffffffffffffffffffffffffffff1681526020019081526020015f20546040516103939190610843565b60405180910390a2565b5f805f8373ffffffffffffffffffffffffffffffffffffffff1673ffffffffffffffffffffffffffffffffffffffff1681526020019081526020015f20549050919050565b5f8111610424576040517f08c379a000000000000000000000000000000000000000000000000000000000815260040161041b90610f5f565b60405180910390fd5b805f803373ffffffffffffffffffffffffffffffffffffffff1673ffffffffffffffffffffffffffffffffffffffff1681526020019081526020015f205410156104a3576040517f08c379a000000000000000000000000000000000000000000000000000000000815260040161049a90610fc7565b60405180910390fd5b805f803373ffffffffffffffffffffffffffffffffffffffff1673ffffffffffffffffffffffffffffffffffffffff1681526020019081526020015f205f8282546104ee9190610fe5565b925050819055503373ffffffffffffffffffffffffffffffffffffffff166108fc8290811502906040515f60405180830381858888f19350505050158015610538573d5f803e3d5ffd5b5060015f3373ffffffffffffffffffffffffffffffffffffffff1673ffffffffffffffffffffffffffffffffffffffff1681526020019081526020015f2060405180606001604052806040518060400160405280600581526020017f7361717565000000000000000000000000000000000000000000000000000000815250815260200183815260200142815250908060018154018082558091505060019003905f5260205f2090600302015f909190919091505f820151815f0190816105ff9190610e20565b50602082015181600101556040820151816002015550503373ffffffffffffffffffffffffffffffffffffffff167f014a0fee2e4f4636f4de7bc3c3662262d3d28152c5700f9ad350ef2e02a9b2788260405161065c9190610843565b60405180910390a23373ffffffffffffffffffffffffffffffffffffffff167f88ade5f32a0055ec23dca5582ee85d78e2d2696e2c402c33de046ca410d199b65f803373ffffffffffffffffffffffffffffffffffffffff1673ffffffffffffffffffffffffffffffffffffffff1681526020019081526020015f20546040516106e69190610843565b60405180910390a250565b606060015f3373ffffffffffffffffffffffffffffffffffffffff1673ffffffffffffffffffffffffffffffffffffffff1681526020019081526020015f20805480602002602001604051908101604052809291908181526020015f905b82821015610822578382905f5260205f2090600302016040518060600160405290815f8201805461077f90610c53565b80601f01602080910402602001604051908101604052809291908181526020018280546107ab90610c53565b80156107f65780601f106107cd576101008083540402835291602001916107f6565b820191905f5260205f20905b8154815290600101906020018083116107d957829003601f168201915b50505050508152602001600182015481526020016002820154815250508152602001906001019061074f565b50505050905090565b5f819050919050565b61083d8161082b565b82525050565b5f6020820190506108565f830184610834565b92915050565b5f80fd5b5f73ffffffffffffffffffffffffffffffffffffffff82169050919050565b5f61088982610860565b9050919050565b6108998161087f565b81146108a3575f80fd5b50565b5f813590506108b481610890565b92915050565b5f602082840312156108cf576108ce61085c565b5b5f6108dc848285016108a6565b91505092915050565b6108ee8161082b565b81146108f8575f80fd5b50565b5f81359050610909816108e5565b92915050565b5f602082840312156109245761092361085c565b5b5f610931848285016108fb565b91505092915050565b5f81519050919050565b5f82825260208201905092915050565b5f819050602082019050919050565b5f81519050919050565b5f82825260208201905092915050565b5f5b8381101561099a57808201518184015260208101905061097f565b5f8484015250505050565b5f601f19601f8301169050919050565b5f6109bf82610963565b6109c9818561096d565b93506109d981856020860161097d565b6109e2816109a5565b840191505092915050565b6109f68161082b565b82525050565b5f606083015f8301518482035f860152610a1682826109b5565b9150506020830151610a2b60208601826109ed565b506040830151610a3e60408601826109ed565b508091505092915050565b5f610a5483836109fc565b905092915050565b5f602082019050919050565b5f610a728261093a565b610a7c8185610944565b935083602082028501610a8e85610954565b805f5b85811015610ac95784840389528151610aaa8582610a49565b9450610ab583610a5c565b925060208a01995050600181019050610a91565b50829750879550505050505092915050565b5f6020820190508181035f830152610af38184610a68565b905092915050565b5f82825260208201905092915050565b7f56616c6f7220646f206465706f7369746f206465766520736572206d61696f725f8201527f20717565207a65726f2e00000000000000000000000000000000000000000000602082015250565b5f610b65602a83610afb565b9150610b7082610b0b565b604082019050919050565b5f6020820190508181035f830152610b9281610b59565b9050919050565b7f4e487b71000000000000000000000000000000000000000000000000000000005f52601160045260245ffd5b5f610bd08261082b565b9150610bdb8361082b565b9250828201905080821115610bf357610bf2610b99565b5b92915050565b7f4e487b71000000000000000000000000000000000000000000000000000000005f52604160045260245ffd5b7f4e487b71000000000000000000000000000000000000000000000000000000005f52602260045260245ffd5b5f6002820490506001821680610c6a57607f821691505b602082108103610c7d57610c7c610c26565b5b50919050565b5f819050815f5260205f209050919050565b5f6020601f8301049050919050565b5f82821b905092915050565b5f60088302610cdf7fffffffffffffffffffffffffffffffffffffffffffffffffffffffffffffffff82610ca4565b610ce98683610ca4565b95508019841693508086168417925050509392505050565b5f819050919050565b5f610d24610d1f610d1a8461082b565b610d01565b61082b565b9050919050565b5f819050919050565b610d3d83610d0a565b610d51610d4982610d2b565b848454610cb0565b825550505050565b5f90565b610d65610d59565b610d70818484610d34565b505050565b5b81811015610d9357610d885f82610d5d565b600181019050610d76565b5050565b601f821115610dd857610da981610c83565b610db284610c95565b81016020851015610dc1578190505b610dd5610dcd85610c95565b830182610d75565b50505b505050565b5f82821c905092915050565b5f610df85f1984600802610ddd565b1980831691505092915050565b5f610e108383610de9565b9150826002028217905092915050565b610e2982610963565b67ffffffffffffffff811115610e4257610e41610bf9565b5b610e4c8254610c53565b610e57828285610d97565b5f60209050601f831160018114610e88575f8415610e76578287015190505b610e808582610e05565b865550610ee7565b601f198416610e9686610c83565b5f5b82811015610ebd57848901518255600182019150602085019450602081019050610e98565b86831015610eda5784890151610ed6601f891682610de9565b8355505b6001600288020188555050505b505050505050565b7f56616c6f7220646f207361717565206465766520736572206d61696f722071755f8201527f65207a65726f2e00000000000000000000000000000000000000000000000000602082015250565b5f610f49602783610afb565b9150610f5482610eef565b604082019050919050565b5f6020820190508181035f830152610f7681610f3d565b9050919050565b7f53616c646f20696e737566696369656e74652e000000000000000000000000005f82015250565b5f610fb1601383610afb565b9150610fbc82610f7d565b602082019050919050565b5f6020820190508181035f830152610fde81610fa5565b9050919050565b5f610fef8261082b565b9150610ffa8361082b565b925082820390508181111561101257611011610b99565b5b9291505056fea26469706673582212208eb2d0e92c9bee6928122fab8348719f6fa9cc208c76c2a315c56026f667c59464736f6c63430008150033",
  "immutableReferences": {},
  "source": "// SPDX-License-Identifier: MIT\r\npragma solidity ^0.8.0;\r\n\r\ncontract Banco {\r\n    struct Transacao {\r\n        string tipo; // \"deposito\" ou \"saque\"\r\n        uint valor;\r\n        uint data;\r\n    }\r\n\r\n    mapping(address => uint) private saldos;\r\n    mapping(address => Transacao[]) private transacoes;\r\n\r\n    event Deposito(address indexed conta, uint valor);\r\n    event Saque(address indexed conta, uint valor);\r\n    event SaldoAtualizado(address indexed conta, uint saldo); // Adicionado para depurao\r\n\r\n    function saldoAtual() public view returns (uint) {\r\n        return saldos[msg.sender];\r\n    }\r\n\r\n    function depositar() public payable {\r\n    require(msg.value > 0, \"Valor do deposito deve ser maior que zero.\");\r\n    saldos[msg.sender] += msg.value;\r\n    transacoes[msg.sender].push(Transacao(\"deposito\", msg.value, block.timestamp));\r\n    emit Deposito(msg.sender, msg.value);\r\n    emit SaldoAtualizado(msg.sender, saldos[msg.sender]); // Adicionado para depurao\r\n    }\r\n\r\n\r\n    function sacar(uint valor) public {\r\n        require(valor > 0, \"Valor do saque deve ser maior que zero.\");\r\n        require(saldos[msg.sender] >= valor, \"Saldo insuficiente.\");\r\n        \r\n        // Atualiza o saldo antes de transferir para evitar reentrncia\r\n        saldos[msg.sender] -= valor;\r\n        payable(msg.sender).transfer(valor);\r\n        transacoes[msg.sender].push(Transacao(\"saque\", valor, block.timestamp));\r\n        emit Saque(msg.sender, valor);\r\n        emit SaldoAtualizado(msg.sender, saldos[msg.sender]); // Adicionado para depurao\r\n    }\r\n\r\n    function extrato() public view returns (Transacao[] memory) {\r\n        return transacoes[msg.sender];\r\n    }\r\n\r\n    function saldoDe(address conta) public view returns (uint) {\r\n        return saldos[conta];\r\n    }\r\n}",
  "sourcePath": "C:\\Users\\monik\\repos\\ods2\\contracts\\Banco.sol",
  "compiler": {
    "name": "solc",
    "version": "0.8.21+commit.d9974bed.Emscripten.clang"
  },
  "schemaVersion": "3.4.16",
  "updatedAt": "2024-07-22T19:55:45.406Z",
  "devdoc": {
    "kind": "dev",
    "methods": {},
    "version": 1
  },
  "userdoc": {
    "kind": "user",
    "methods": {},
    "version": 1
  }
}